:020000040000FA
:02000000FE2FD1
:100EF40083160313850101308600831203138501D1
:100F0400F301F40173087404031DAD2F831203135A
:100F14000618AD2F0330F2008A30F1005530F0008E
:100F2400F00B922FF10B922FF20B922F992F831229
:100F3400031385140230F2004530F100A930F000AB
:100F4400F00BA22FF10BA22FF20BA22FA92F01302D
:100F5400F3000030F40073037404031DD62F8312CE
:100F640003130618D62F0330F2008A30F1005530EF
:100F7400F000F00BBB2FF10BBB2FF20BBB2FC22FDA
:100F84008312031305140230F2004530F100A93036
:100F9400F000F00BCB2FF10BCB2FF20BCB2FD22F7A
:100FA4000230F3000030F400023073067404031DB1
:100FB400842F831203130618842F0330F2008A301F
:100FC400F1005530F000F00BE52FF10BE52FF20B9B
:100FD400E52FEC2F83120313851005100230F20065
:100FE4004530F100A930F000F00BF62FF10BF62F8D
:0C0FF400F20BF62FFD2F822F83017A2FC5
:02400E0019FF98
:00000001FF
